:100000000C9466000C9485000C9485000C9485007B
:100010000C9485000C9485000C9485000C9485004C
:100020000C946A030C9485000C9485000C94850054
:100030000C9485000C9485000C9485000C9485002C
:100040000C9485000C9459030C9485000C94850045
:100050000C9485000C9485000C9485000C9485000C
:100060000C9485000C9485000C9485000C948500FC
:100070000C9485000C9485000C9485000C948500EC
:100080000C9485000C9485000C9485000C948500DC
:100090000C9485000C9485000C9485000C948500CC
:1000A0000C9485000C9485000C9485000C948500BC
:1000B0000C9485000C9485000C9485000C948500AC
:1000C0000C9485000C9485000C94850011241FBEAF
:1000D000CFEFD1E2DEBFCDBF12E0A0E0B2E0E4E1BD
:1000E000F7E000E00BBF02C007900D92A438B10703
:1000F000D9F722E0A4E8B2E001C01D92A139B2070D
:10010000E1F70E9456020C9488030C94000088B119
:100110008F7388B9A198A09A0F98479A0799FECF34
:100120004798A098A19A0F9A08950E948700469830
:10013000479A80918E0282B9479808950E9487005D
:100140004698479A82B180938E024798089581E03D
:1001500080938E020E949500089588E380938E021A
:100160000E94950086E080938E020E94950080E1B7
:1001700080938E020E9495000895806880938E027D
:100180000E9495000895CF93C82F0E94870088B1E0
:10019000806C88B9C2B94798CF9108951F93CF93C7
:1001A000DF93EC0110E007C0FE01E80FF91F80812A
:1001B0000E94C3001F5F812F90E0FE01019000208C
:1001C000E9F73197EC1BFD0B8E179F0768F3DF9162
:1001D000CF911F9108958FE080938E020E94950029
:1001E00008950E949E0080918E028D7F80938E02E2
:1001F0000E94950008958CE080938E020E949500E5
:100200000895CF93C42F81706F7090E4899F600D23
:100210001124862F0E94BD0080E38C0F0E94C30032
:10022000CF91089599B1986F909592FD09C091FF73
:1002300002C08F5F089590FF02C08E5F08958FEF18
:1002400008958FE38BB981E00E9412018F3F99F4EA
:100250008FE58BB984E00E9412018F3F61F48FE635
:100260008BB987E00E9412018F3F29F487E78BB991
:100270008AE00E9412010895292F382FF894F999E5
:10028000FECF22BD31BD60BDFA9AF99A78940895E7
:10029000292F382FF894F999FECF22BD31BDF89A55
:1002A00080B5789408950E94A70080E00E94BD0068
:1002B00080E092E00E94CE002FE34DE083E02150E9
:1002C00040408040E1F700C0000025E030E0E8EE6B
:1002D00073E064EF51E01DC041B3409541BBA6EA15
:1002E000AA95F1F700C001970097B1F7862F952FD7
:1002F00041B3409541BBA9EFB0E01197F1F700C0C1
:10030000000001970097A1F721503109211531050F
:1003100019F08E2F972FE0CFFFCF80E991E021B326
:10032000209521BB28EC2A95F1F701970097B9F7A2
:100330008EEE92E021B3209521BB24E62A95F1F7B9
:1003400001970097B9F78CED95E021B3209521BB7B
:1003500022E42A95F1F700C001970097B1F70895BC
:10036000CF93CFEFC1B9C7B9C3BB0E94A7000E940A
:10037000AD000E94EB000E94F1000E94FB008FE79D
:100380008DB91EB8CCBB1092690080EC80936A00D6
:1003900080E88DBB88EF8AB987E08BB9C4B9C5B94D
:1003A000C0BB78940E948D01CF9108951092800077
:1003B0008DE0809381001092820083E08093890019
:1003C00080ED80938800109285001092840082E076
:1003D00080936F0008950E94A70080E00E94BD00F6
:1003E0008CE092E00E94CE00109284021092900263
:1003F0008FEF80938902CAE00E94210180938902D5
:10040000809184028230C1F7C0938F0210928402DF
:100410000E94D6010E94CA02EFCF0E94A70086E187
:1004200092E00E94CE0080E40E94BD0087E292E04C
:100430000E94CE000E9421018093890281E090E019
:100440000E94480185B980918902813041F483E29C
:1004500094EF0197F1F700C000000E9445038091DE
:100460008902823039F780E090E00E9448018F3F96
:1004700041F083E294EF0197F1F700C000000E9481
:10048000EB010E94A70080E00E94BD0085E392E09E
:100490000E94CE009FE32DE083E0915020408040F9
:1004A000E1F700C000000E944503C4CF0E94B001E4
:1004B0000E940D02C0919002CC2371F0C150C093F4
:1004C0009002D0E0CE010E944801CB57DD4F8883D7
:1004D000C0919002C111F2CF44E050E065E872E0B3
:1004E0008AE892E00E947B03892B11F00E9453015D
:1004F0000E94A70085E492E00E94CE002FE78AE1E7
:1005000096E0215080409040E1F700C000000E943A
:100510000D0260919002643050F5409189024C3098
:1005200051F186EF840F8230A0F181E00E94010139
:1005300088EC90E021B3209521BB26EA2A95F1F7BB
:1005400000C001970097B1F783E294EF0197F1F7AC
:1005500000C0000080919002E82FF0E0E657FD4FC8
:100560009091890290838F5F80939002089580918B
:1005700089028C3071F488EE93E021B3209521BB81
:1005800022E42A95F1F700C001970097B1F70E9485
:100590005A0208950E94A70080E00E94BD008FE4E7
:1005A00092E00E94CE0080E40E94BD0080E692E0CE
:1005B0000E94CE002FE38DE093E0215080409040D8
:1005C000E1F700C000000E94A70080E00E94BD008B
:1005D0008AE692E00E94CE00CFEF40918F026AE05F
:1005E00080E00E9401010E942101809389028F3FD7
:1005F00019F0C5B90E94890280918F028111EDCF57
:100600000E94530160919002643050F5409189023C
:100610004C3051F186EF840F8230B0F181E00E94BE
:10062000010188EC90E021B3209521BB26EA2A95B0
:10063000F1F700C001970097B1F783E294EF0197BB
:10064000F1F700C00000809190026091890290E073
:100650000E943C01809190028F5F809390020895E8
:10066000809189028C3081F4643071F488EE93E0DB
:1006700021B3209521BB22E42A95F1F700C0019710
:100680000097B1F70E940D020895109290020E9407
:10069000A70085E792E00E94CE008FEF8093890249
:1006A0000E942101809389028F3FD1F30E940203AF
:1006B000F7CF1F920F920FB60F9211248F93809154
:1006C0008F02815080938F028F910F900FBE0F90F9
:1006D0001F9018951F920F920FB60F9211248F93AF
:1006E000809184028F5F809384028F910F900FBE60
:1006F0000F901F901895FB01DC0104C08D910190B3
:10070000801921F441505040C8F7881B990B089577
:04071000F894FFCF8B
:10071400496E636F7272656374212100416C61726A
:100724006D205365740031202D2053657420506171
:100734007373776F72640032202D2041726D2041F3
:100744006C61726D004E6F2050617373776F7264C9
:100754002053657400436F72726563742121004DE8
:100764006F74696F6E2044657465637465642100F9
:10077400456E746572204B657900436F756E7464C1
:100784006F776E3A004E65772050617373776F729E
:04079400643A0000C3
:00000001FF
