:100000000C9466000C9485000C9485000C9485007B
:100010000C9485000C9485000C9485000C9485004C
:100020000C9485000C9485000C9485000C9485003C
:100030000C9485000C9485000C9485000C9485002C
:100040000C9485000C9485000C9485000C9485001C
:100050000C9485000C9485000C9485000C9485000C
:100060000C9485000C9485000C9485000C948500FC
:100070000C9485000C9485000C9485000C948500EC
:100080000C9485000C9485000C9485000C948500DC
:100090000C9485000C9485000C9485000C948500CC
:1000A0000C9485000C9485000C9485000C948500BC
:1000B0000C9485000C9485000C9485000C948500AC
:1000C0000C9485000C9485000C94850011241FBEAF
:1000D000CFEFD1E2DEBFCDBF12E0A0E0B2E0ECECAA
:1000E000F2E000E00BBF02C007900D92A435B1070B
:1000F000D9F722E0A4E5B2E001C01D92A535B20710
:10010000E1F70E9408010C9464010C94000088B18E
:100110008F7388B9A198A09A0F98479A0799FECF34
:100120004798A098A19A0F9A08950E948700469830
:10013000479A8091540282B9479808950E94870097
:100140004698479A82B1809354024798089581E077
:10015000809354020E949500089588E3809354028E
:100160000E94950086E0809354020E94950080E1F1
:10017000809354020E9495000895806880935402F1
:100180000E9495000895CF93C82F0E94870088B1E0
:10019000806C88B9C2B94798CF9108951F93CF93C7
:1001A000DF93EC0110E007C0FE01E80FF91F80812A
:1001B0000E94C3001F5F812F90E0FE01019000208C
:1001C000E9F73197EC1BFD0B8E179F0768F3DF9162
:1001D000CF911F9108958FE0809354020E94950063
:1001E00008950E949E00809154028D7F8093540256
:1001F0000E94950008958CE0809354020E9495001F
:1002000008958FEF81B987B983BB1AB878940895A0
:100210000E9401010E94A7000E94AD000E94EB0015
:100220000E94F1000E94FB0080E00E94BD0080E07F
:1002300092E00E94CE0080E40E94BD0081E192E045
:100240000E94CE00C9B1C0FD0CC00E94A70080E092
:100250000E94BD0087EF0E94C3008EE192E00E94E1
:10026000CE00C1FD0CC00E94A70080E00E94BD002E
:1002700088EF0E94C30088E292E00E94CE00C2FD97
:1002800010C00E94A70082E00E94BD0088E392E0B7
:100290000E94CE0085E40E94BD0085E492E00E94A9
:1002A000CE00C3FDCFCF0E94A70082E00E94BD0018
:1002B00088E392E00E94CE0085E40E94BD008BE4BA
:0C02C00092E00E94CE00BECFF894FFCF69
:1002CC005072657373206F6E65206F66207468655D
:1002DC0000737769746368657320302D3300207365
:1002EC0061797320486920006963686172642073C6
:1002FC006179732042796500526963686172642088
:10030C00736179730048656C6C6F00476F6F646242
:04031C0079650000FF
:00000001FF
